{
  "contractName": "Voting",
  "abi": [
    {
      "inputs": [],
      "stateMutability": "nonpayable",
      "type": "constructor"
    },
    {
      "inputs": [
        {
          "internalType": "address",
          "name": "owner",
          "type": "address"
        }
      ],
      "name": "OwnableInvalidOwner",
      "type": "error"
    },
    {
      "inputs": [
        {
          "internalType": "address",
          "name": "account",
          "type": "address"
        }
      ],
      "name": "OwnableUnauthorizedAccount",
      "type": "error"
    },
    {
      "anonymous": false,
      "inputs": [
        {
          "indexed": true,
          "internalType": "address",
          "name": "previousOwner",
          "type": "address"
        },
        {
          "indexed": true,
          "internalType": "address",
          "name": "newOwner",
          "type": "address"
        }
      ],
      "name": "OwnershipTransferred",
      "type": "event"
    },
    {
      "anonymous": false,
      "inputs": [
        {
          "indexed": false,
          "internalType": "uint256",
          "name": "proposalId",
          "type": "uint256"
        }
      ],
      "name": "ProposalRegistered",
      "type": "event"
    },
    {
      "anonymous": false,
      "inputs": [
        {
          "indexed": false,
          "internalType": "address",
          "name": "voter",
          "type": "address"
        },
        {
          "indexed": false,
          "internalType": "uint256",
          "name": "proposalId",
          "type": "uint256"
        }
      ],
      "name": "Voted",
      "type": "event"
    },
    {
      "anonymous": false,
      "inputs": [
        {
          "indexed": false,
          "internalType": "address",
          "name": "voterAddress",
          "type": "address"
        }
      ],
      "name": "VoterRegistered",
      "type": "event"
    },
    {
      "anonymous": false,
      "inputs": [
        {
          "indexed": false,
          "internalType": "enum Voting.WorkflowStatus",
          "name": "previousStatus",
          "type": "uint8"
        },
        {
          "indexed": false,
          "internalType": "enum Voting.WorkflowStatus",
          "name": "newStatus",
          "type": "uint8"
        }
      ],
      "name": "WorkflowStatusChange",
      "type": "event"
    },
    {
      "inputs": [],
      "name": "owner",
      "outputs": [
        {
          "internalType": "address",
          "name": "",
          "type": "address"
        }
      ],
      "stateMutability": "view",
      "type": "function",
      "constant": true
    },
    {
      "inputs": [
        {
          "internalType": "uint256",
          "name": "",
          "type": "uint256"
        }
      ],
      "name": "proposals",
      "outputs": [
        {
          "internalType": "string",
          "name": "description",
          "type": "string"
        },
        {
          "internalType": "uint256",
          "name": "voteCount",
          "type": "uint256"
        }
      ],
      "stateMutability": "view",
      "type": "function",
      "constant": true
    },
    {
      "inputs": [],
      "name": "renounceOwnership",
      "outputs": [],
      "stateMutability": "nonpayable",
      "type": "function"
    },
    {
      "inputs": [
        {
          "internalType": "address",
          "name": "newOwner",
          "type": "address"
        }
      ],
      "name": "transferOwnership",
      "outputs": [],
      "stateMutability": "nonpayable",
      "type": "function"
    },
    {
      "inputs": [
        {
          "internalType": "address",
          "name": "",
          "type": "address"
        }
      ],
      "name": "voters",
      "outputs": [
        {
          "internalType": "bool",
          "name": "isRegistered",
          "type": "bool"
        },
        {
          "internalType": "bool",
          "name": "hasVoted",
          "type": "bool"
        },
        {
          "internalType": "uint256",
          "name": "votedProposalId",
          "type": "uint256"
        }
      ],
      "stateMutability": "view",
      "type": "function",
      "constant": true
    },
    {
      "inputs": [],
      "name": "winningProposalId",
      "outputs": [
        {
          "internalType": "uint256",
          "name": "",
          "type": "uint256"
        }
      ],
      "stateMutability": "view",
      "type": "function",
      "constant": true
    },
    {
      "inputs": [],
      "name": "workflowStatus",
      "outputs": [
        {
          "internalType": "enum Voting.WorkflowStatus",
          "name": "",
          "type": "uint8"
        }
      ],
      "stateMutability": "view",
      "type": "function",
      "constant": true
    },
    {
      "inputs": [
        {
          "internalType": "address",
          "name": "_voterAddress",
          "type": "address"
        }
      ],
      "name": "registerVoter",
      "outputs": [],
      "stateMutability": "nonpayable",
      "type": "function"
    },
    {
      "inputs": [],
      "name": "startProposalsRegistration",
      "outputs": [],
      "stateMutability": "nonpayable",
      "type": "function"
    },
    {
      "inputs": [
        {
          "internalType": "string",
          "name": "_description",
          "type": "string"
        }
      ],
      "name": "registerProposal",
      "outputs": [],
      "stateMutability": "nonpayable",
      "type": "function"
    },
    {
      "inputs": [],
      "name": "endProposalsRegistration",
      "outputs": [],
      "stateMutability": "nonpayable",
      "type": "function"
    },
    {
      "inputs": [],
      "name": "startVotingSession",
      "outputs": [],
      "stateMutability": "nonpayable",
      "type": "function"
    },
    {
      "inputs": [
        {
          "internalType": "uint256",
          "name": "_proposalId",
          "type": "uint256"
        }
      ],
      "name": "vote",
      "outputs": [],
      "stateMutability": "nonpayable",
      "type": "function"
    },
    {
      "inputs": [],
      "name": "endVotingSession",
      "outputs": [],
      "stateMutability": "nonpayable",
      "type": "function"
    },
    {
      "inputs": [],
      "name": "tallyVotes",
      "outputs": [],
      "stateMutability": "nonpayable",
      "type": "function"
    },
    {
      "inputs": [],
      "name": "getWinner",
      "outputs": [
        {
          "components": [
            {
              "internalType": "string",
              "name": "description",
              "type": "string"
            },
            {
              "internalType": "uint256",
              "name": "voteCount",
              "type": "uint256"
            }
          ],
          "internalType": "struct Voting.Proposal",
          "name": "",
          "type": "tuple"
        }
      ],
      "stateMutability": "view",
      "type": "function",
      "constant": true
    },
    {
      "inputs": [],
      "name": "getProposals",
      "outputs": [
        {
          "components": [
            {
              "internalType": "string",
              "name": "description",
              "type": "string"
            },
            {
              "internalType": "uint256",
              "name": "voteCount",
              "type": "uint256"
            }
          ],
          "internalType": "struct Voting.Proposal[]",
          "name": "",
          "type": "tuple[]"
        }
      ],
      "stateMutability": "view",
      "type": "function",
      "constant": true
    },
    {
      "inputs": [
        {
          "internalType": "uint256",
          "name": "_proposalId",
          "type": "uint256"
        }
      ],
      "name": "getProposal",
      "outputs": [
        {
          "components": [
            {
              "internalType": "string",
              "name": "description",
              "type": "string"
            },
            {
              "internalType": "uint256",
              "name": "voteCount",
              "type": "uint256"
            }
          ],
          "internalType": "struct Voting.Proposal",
          "name": "",
          "type": "tuple"
        }
      ],
      "stateMutability": "view",
      "type": "function",
      "constant": true
    },
    {
      "inputs": [
        {
          "internalType": "address",
          "name": "_voterAddress",
          "type": "address"
        }
      ],
      "name": "getVoter",
      "outputs": [
        {
          "components": [
            {
              "internalType": "bool",
              "name": "isRegistered",
              "type": "bool"
            },
            {
              "internalType": "bool",
              "name": "hasVoted",
              "type": "bool"
            },
            {
              "internalType": "uint256",
              "name": "votedProposalId",
              "type": "uint256"
            }
          ],
          "internalType": "struct Voting.Voter",
          "name": "",
          "type": "tuple"
        }
      ],
      "stateMutability": "view",
      "type": "function",
      "constant": true
    },
    {
      "inputs": [
        {
          "internalType": "address",
          "name": "_voterAddress",
          "type": "address"
        }
      ],
      "name": "isVoterRegistered",
      "outputs": [
        {
          "internalType": "bool",
          "name": "",
          "type": "bool"
        }
      ],
      "stateMutability": "view",
      "type": "function",
      "constant": true
    },
    {
      "inputs": [
        {
          "internalType": "address",
          "name": "_voterAddress",
          "type": "address"
        }
      ],
      "name": "hasVoterVoted",
      "outputs": [
        {
          "internalType": "bool",
          "name": "",
          "type": "bool"
        }
      ],
      "stateMutability": "view",
      "type": "function",
      "constant": true
    },
    {
      "inputs": [
        {
          "internalType": "address",
          "name": "_voterAddress",
          "type": "address"
        }
      ],
      "name": "getVoterVotedProposalId",
      "outputs": [
        {
          "internalType": "uint256",
          "name": "",
          "type": "uint256"
        }
      ],
      "stateMutability": "view",
      "type": "function",
      "constant": true
    }
  ],
  "bytecode": "0x60806040523480156200001157600080fd5b5033600073ffffffffffffffffffffffffffffffffffffffff168173ffffffffffffffffffffffffffffffffffffffff1603620000885760006040517f1e4fbdf70000000000000000000000000000000000000000000000000000000081526004016200007f9190620001d6565b60405180910390fd5b6200009981620000cd60201b60201c565b5060008060146101000a81548160ff02191690836005811115620000c257620000c1620001f3565b5b021790555062000222565b60008060009054906101000a900473ffffffffffffffffffffffffffffffffffffffff169050816000806101000a81548173ffffffffffffffffffffffffffffffffffffffff021916908373ffffffffffffffffffffffffffffffffffffffff1602179055508173ffffffffffffffffffffffffffffffffffffffff168173ffffffffffffffffffffffffffffffffffffffff167f8be0079c531659141344cd1fd0a4f28419497f9722a3daafe3b4186f6b6457e060405160405180910390a35050565b600073ffffffffffffffffffffffffffffffffffffffff82169050919050565b6000620001be8262000191565b9050919050565b620001d081620001b1565b82525050565b6000602082019050620001ed6000830184620001c5565b92915050565b7f4e487b7100000000000000000000000000000000000000000000000000000000600052602160045260246000fd5b612c0a80620002326000396000f3fe608060405234801561001057600080fd5b50600436106101425760003560e01c8063a1edffa2116100b8578063d4f50f981161007c578063d4f50f981461031c578063e09b8c791461034c578063eb2119db14610356578063ee74c67814610386578063f2fde38b14610390578063fd11f97a146103ac57610142565b8063a1edffa214610274578063a3ec138d14610292578063a7bfab16146102c4578063c64963c5146102ce578063c7f758a8146102ec57610142565b80633c0a471b1161010a5780633c0a471b146101d657806362564c48146102065780636c29744514610224578063715018a61461022e5780638da5cb5b146102385780638e7ea5b21461025657610142565b80630121b93f14610147578063013cf08b146101635780632f95355b14610194578063378a2178146101b057806338db6dd3146101ba575b600080fd5b610161600480360381019061015c9190611a09565b6103dc565b005b61017d60048036038101906101789190611a09565b6106d1565b60405161018b929190611ad5565b60405180910390f35b6101ae60048036038101906101a99190611b6a565b61078d565b005b6101b86109cb565b005b6101d460048036038101906101cf9190611c15565b610ba3565b005b6101f060048036038101906101eb9190611c15565b610db5565b6040516101fd9190611c42565b60405180910390f35b61020e610e01565b60405161021b9190611db5565b60405180910390f35b61022c610efc565b005b61023661104b565b005b61024061105f565b60405161024d9190611de6565b60405180910390f35b61025e611088565b60405161026b9190611e3e565b60405180910390f35b61027c6111d5565b6040516102899190611ed7565b60405180910390f35b6102ac60048036038101906102a79190611c15565b6111e8565b6040516102bb93929190611f0d565b60405180910390f35b6102cc61122c565b005b6102d6611333565b6040516102e39190611c42565b60405180910390f35b61030660048036038101906103019190611a09565b611339565b6040516103139190611e3e565b60405180910390f35b61033660048036038101906103319190611c15565b611458565b6040516103439190611f95565b60405180910390f35b6103546114f1565b005b610370600480360381019061036b9190611c15565b6115f8565b60405161037d9190611fb0565b60405180910390f35b61038e611651565b005b6103aa60048036038101906103a59190611c15565b611758565b005b6103c660048036038101906103c19190611c15565b6117de565b6040516103d39190611fb0565b60405180910390f35b600260003373ffffffffffffffffffffffffffffffffffffffff1673ffffffffffffffffffffffffffffffffffffffff16815260200190815260200160002060000160009054906101000a900460ff1661046b576040517f08c379a00000000000000000000000000000000000000000000000000000000081526004016104629061203d565b60405180910390fd5b6003600581111561047f5761047e611e60565b5b600060149054906101000a900460ff1660058111156104a1576104a0611e60565b5b146104e1576040517f08c379a00000000000000000000000000000000000000000000000000000000081526004016104d8906120cf565b60405180910390fd5b600260003373ffffffffffffffffffffffffffffffffffffffff1673ffffffffffffffffffffffffffffffffffffffff16815260200190815260200160002060000160019054906101000a900460ff1615610571576040517f08c379a00000000000000000000000000000000000000000000000000000000081526004016105689061213b565b60405180910390fd5b60038054905081106105b8576040517f08c379a00000000000000000000000000000000000000000000000000000000081526004016105af906121a7565b60405180910390fd5b6001600260003373ffffffffffffffffffffffffffffffffffffffff1673ffffffffffffffffffffffffffffffffffffffff16815260200190815260200160002060000160016101000a81548160ff02191690831515021790555080600260003373ffffffffffffffffffffffffffffffffffffffff1673ffffffffffffffffffffffffffffffffffffffff168152602001908152602001600020600101819055506003818154811061066e5761066d6121c7565b5b9060005260206000209060020201600101600081548092919061069090612225565b91905055507f4d99b957a2bc29a30ebd96a7be8e68fe50a3c701db28a91436490b7d53870ca433826040516106c692919061226d565b60405180910390a150565b600381815481106106e157600080fd5b9060005260206000209060020201600091509050806000018054610704906122c5565b80601f0160208091040260200160405190810160405280929190818152602001828054610730906122c5565b801561077d5780601f106107525761010080835404028352916020019161077d565b820191906000526020600020905b81548152906001019060200180831161076057829003601f168201915b5050505050908060010154905082565b600260003373ffffffffffffffffffffffffffffffffffffffff1673ffffffffffffffffffffffffffffffffffffffff16815260200190815260200160002060000160009054906101000a900460ff1661081c576040517f08c379a00000000000000000000000000000000000000000000000000000000081526004016108139061203d565b60405180910390fd5b600160058111156108305761082f611e60565b5b600060149054906101000a900460ff16600581111561085257610851611e60565b5b14610892576040517f08c379a000000000000000000000000000000000000000000000000000000000815260040161088990612368565b60405180910390fd5b600082829050116108d8576040517f08c379a00000000000000000000000000000000000000000000000000000000081526004016108cf906123fa565b60405180910390fd5b6003604051806040016040528084848080601f016020809104026020016040519081016040528093929190818152602001838380828437600081840152601f19601f82011690508083019250505050505050815260200160008152509080600181540180825580915050600190039060005260206000209060020201600090919091909150600082015181600001908161097291906125f5565b506020820151816001015550507f92e393e9b54e2f801d3ea4beb0c5e71a21cc34a5d34b77d0fb8a3aa1650dc18f60016003805490506109b291906126c7565b6040516109bf9190611c42565b60405180910390a15050565b6109d3611837565b600460058111156109e7576109e6611e60565b5b600060149054906101000a900460ff166005811115610a0957610a08611e60565b5b14610a49576040517f08c379a0000000000000000000000000000000000000000000000000000000008152600401610a409061276d565b60405180910390fd5b600060038054905011610a91576040517f08c379a0000000000000000000000000000000000000000000000000000000008152600401610a88906127d9565b60405180910390fd5b60008060005b600380549050811015610b10578260038281548110610ab957610ab86121c7565b5b9060005260206000209060020201600101541115610afd5760038181548110610ae557610ae46121c7565b5b90600052602060002090600202016001015492508091505b8080610b0890612225565b915050610a97565b508060018190555060008060149054906101000a900460ff1690506005600060146101000a81548160ff02191690836005811115610b5157610b50611e60565b5b02179055507f0a97a4ee45751e2abf3e4fc8946939630b11b371ea8ae39ccdc3056e98f5cc3f81600060149054906101000a900460ff16604051610b969291906127f9565b60405180910390a1505050565b610bab611837565b60006005811115610bbf57610bbe611e60565b5b600060149054906101000a900460ff166005811115610be157610be0611e60565b5b14610c21576040517f08c379a0000000000000000000000000000000000000000000000000000000008152600401610c1890612894565b60405180910390fd5b600260008273ffffffffffffffffffffffffffffffffffffffff1673ffffffffffffffffffffffffffffffffffffffff16815260200190815260200160002060000160009054906101000a900460ff1615610cb1576040517f08c379a0000000000000000000000000000000000000000000000000000000008152600401610ca890612900565b60405180910390fd5b600073ffffffffffffffffffffffffffffffffffffffff168173ffffffffffffffffffffffffffffffffffffffff1603610d20576040517f08c379a0000000000000000000000000000000000000000000000000000000008152600401610d179061296c565b60405180910390fd5b6001600260008373ffffffffffffffffffffffffffffffffffffffff1673ffffffffffffffffffffffffffffffffffffffff16815260200190815260200160002060000160006101000a81548160ff0219169083151502179055507fb6be2187d059cc2a55fe29e0e503b566e1e0f8c8780096e185429350acffd3dd81604051610daa9190611de6565b60405180910390a150565b6000600260008373ffffffffffffffffffffffffffffffffffffffff1673ffffffffffffffffffffffffffffffffffffffff168152602001908152602001600020600101549050919050565b60606003805480602002602001604051908101604052809291908181526020016000905b82821015610ef35783829060005260206000209060020201604051806040016040529081600082018054610e58906122c5565b80601f0160208091040260200160405190810160405280929190818152602001828054610e84906122c5565b8015610ed15780601f10610ea657610100808354040283529160200191610ed1565b820191906000526020600020905b815481529060010190602001808311610eb457829003601f168201915b5050505050815260200160018201548152505081526020019060010190610e25565b50505050905090565b610f04611837565b60016005811115610f1857610f17611e60565b5b600060149054906101000a900460ff166005811115610f3a57610f39611e60565b5b14610f7a576040517f08c379a0000000000000000000000000000000000000000000000000000000008152600401610f7190612368565b60405180910390fd5b600060038054905011610fc2576040517f08c379a0000000000000000000000000000000000000000000000000000000008152600401610fb9906129fe565b60405180910390fd5b60008060149054906101000a900460ff1690506002600060146101000a81548160ff02191690836005811115610ffb57610ffa611e60565b5b02179055507f0a97a4ee45751e2abf3e4fc8946939630b11b371ea8ae39ccdc3056e98f5cc3f81600060149054906101000a900460ff166040516110409291906127f9565b60405180910390a150565b611053611837565b61105d60006118be565b565b60008060009054906101000a900473ffffffffffffffffffffffffffffffffffffffff16905090565b61109061198a565b6005808111156110a3576110a2611e60565b5b600060149054906101000a900460ff1660058111156110c5576110c4611e60565b5b14611105576040517f08c379a00000000000000000000000000000000000000000000000000000000081526004016110fc90612a90565b60405180910390fd5b60036001548154811061111b5761111a6121c7565b5b9060005260206000209060020201604051806040016040529081600082018054611144906122c5565b80601f0160208091040260200160405190810160405280929190818152602001828054611170906122c5565b80156111bd5780601f10611192576101008083540402835291602001916111bd565b820191906000526020600020905b8154815290600101906020018083116111a057829003601f168201915b50505050508152602001600182015481525050905090565b600060149054906101000a900460ff1681565b60026020528060005260406000206000915090508060000160009054906101000a900460ff16908060000160019054906101000a900460ff16908060010154905083565b611234611837565b6003600581111561124857611247611e60565b5b600060149054906101000a900460ff16600581111561126a57611269611e60565b5b146112aa576040517f08c379a00000000000000000000000000000000000000000000000000000000081526004016112a1906120cf565b60405180910390fd5b60008060149054906101000a900460ff1690506004600060146101000a81548160ff021916908360058111156112e3576112e2611e60565b5b02179055507f0a97a4ee45751e2abf3e4fc8946939630b11b371ea8ae39ccdc3056e98f5cc3f81600060149054906101000a900460ff166040516113289291906127f9565b60405180910390a150565b60015481565b61134161198a565b6003805490508210611388576040517f08c379a000000000000000000000000000000000000000000000000000000000815260040161137f906121a7565b60405180910390fd5b6003828154811061139c5761139b6121c7565b5b90600052602060002090600202016040518060400160405290816000820180546113c5906122c5565b80601f01602080910402602001604051908101604052809291908181526020018280546113f1906122c5565b801561143e5780601f106114135761010080835404028352916020019161143e565b820191906000526020600020905b81548152906001019060200180831161142157829003601f168201915b505050505081526020016001820154815250509050919050565b6114606119a4565b600260008373ffffffffffffffffffffffffffffffffffffffff1673ffffffffffffffffffffffffffffffffffffffff1681526020019081526020016000206040518060600160405290816000820160009054906101000a900460ff161515151581526020016000820160019054906101000a900460ff161515151581526020016001820154815250509050919050565b6114f9611837565b6000600581111561150d5761150c611e60565b5b600060149054906101000a900460ff16600581111561152f5761152e611e60565b5b1461156f576040517f08c379a000000000000000000000000000000000000000000000000000000000815260040161156690612b22565b60405180910390fd5b60008060149054906101000a900460ff1690506001600060146101000a81548160ff021916908360058111156115a8576115a7611e60565b5b02179055507f0a97a4ee45751e2abf3e4fc8946939630b11b371ea8ae39ccdc3056e98f5cc3f81600060149054906101000a900460ff166040516115ed9291906127f9565b60405180910390a150565b6000600260008373ffffffffffffffffffffffffffffffffffffffff1673ffffffffffffffffffffffffffffffffffffffff16815260200190815260200160002060000160009054906101000a900460ff169050919050565b611659611837565b6002600581111561166d5761166c611e60565b5b600060149054906101000a900460ff16600581111561168f5761168e611e60565b5b146116cf576040517f08c379a00000000000000000000000000000000000000000000000000000000081526004016116c690612bb4565b60405180910390fd5b60008060149054906101000a900460ff1690506003600060146101000a81548160ff0219169083600581111561170857611707611e60565b5b02179055507f0a97a4ee45751e2abf3e4fc8946939630b11b371ea8ae39ccdc3056e98f5cc3f81600060149054906101000a900460ff1660405161174d9291906127f9565b60405180910390a150565b611760611837565b600073ffffffffffffffffffffffffffffffffffffffff168173ffffffffffffffffffffffffffffffffffffffff16036117d25760006040517f1e4fbdf70000000000000000000000000000000000000000000000000000000081526004016117c99190611de6565b60405180910390fd5b6117db816118be565b50565b6000600260008373ffffffffffffffffffffffffffffffffffffffff1673ffffffffffffffffffffffffffffffffffffffff16815260200190815260200160002060000160019054906101000a900460ff169050919050565b61183f611982565b73ffffffffffffffffffffffffffffffffffffffff1661185d61105f565b73ffffffffffffffffffffffffffffffffffffffff16146118bc57611880611982565b6040517f118cdaa70000000000000000000000000000000000000000000000000000000081526004016118b39190611de6565b60405180910390fd5b565b60008060009054906101000a900473ffffffffffffffffffffffffffffffffffffffff169050816000806101000a81548173ffffffffffffffffffffffffffffffffffffffff021916908373ffffffffffffffffffffffffffffffffffffffff1602179055508173ffffffffffffffffffffffffffffffffffffffff168173ffffffffffffffffffffffffffffffffffffffff167f8be0079c531659141344cd1fd0a4f28419497f9722a3daafe3b4186f6b6457e060405160405180910390a35050565b600033905090565b604051806040016040528060608152602001600081525090565b6040518060600160405280600015158152602001600015158152602001600081525090565b600080fd5b600080fd5b6000819050919050565b6119e6816119d3565b81146119f157600080fd5b50565b600081359050611a03816119dd565b92915050565b600060208284031215611a1f57611a1e6119c9565b5b6000611a2d848285016119f4565b91505092915050565b600081519050919050565b600082825260208201905092915050565b60005b83811015611a70578082015181840152602081019050611a55565b60008484015250505050565b6000601f19601f8301169050919050565b6000611a9882611a36565b611aa28185611a41565b9350611ab2818560208601611a52565b611abb81611a7c565b840191505092915050565b611acf816119d3565b82525050565b60006040820190508181036000830152611aef8185611a8d565b9050611afe6020830184611ac6565b9392505050565b600080fd5b600080fd5b600080fd5b60008083601f840112611b2a57611b29611b05565b5b8235905067ffffffffffffffff811115611b4757611b46611b0a565b5b602083019150836001820283011115611b6357611b62611b0f565b5b9250929050565b60008060208385031215611b8157611b806119c9565b5b600083013567ffffffffffffffff811115611b9f57611b9e6119ce565b5b611bab85828601611b14565b92509250509250929050565b600073ffffffffffffffffffffffffffffffffffffffff82169050919050565b6000611be282611bb7565b9050919050565b611bf281611bd7565b8114611bfd57600080fd5b50565b600081359050611c0f81611be9565b92915050565b600060208284031215611c2b57611c2a6119c9565b5b6000611c3984828501611c00565b91505092915050565b6000602082019050611c576000830184611ac6565b92915050565b600081519050919050565b600082825260208201905092915050565b6000819050602082019050919050565b600082825260208201905092915050565b6000611ca582611a36565b611caf8185611c89565b9350611cbf818560208601611a52565b611cc881611a7c565b840191505092915050565b611cdc816119d3565b82525050565b60006040830160008301518482036000860152611cff8282611c9a565b9150506020830151611d146020860182611cd3565b508091505092915050565b6000611d2b8383611ce2565b905092915050565b6000602082019050919050565b6000611d4b82611c5d565b611d558185611c68565b935083602082028501611d6785611c79565b8060005b85811015611da35784840389528151611d848582611d1f565b9450611d8f83611d33565b925060208a01995050600181019050611d6b565b50829750879550505050505092915050565b60006020820190508181036000830152611dcf8184611d40565b905092915050565b611de081611bd7565b82525050565b6000602082019050611dfb6000830184611dd7565b92915050565b60006040830160008301518482036000860152611e1e8282611c9a565b9150506020830151611e336020860182611cd3565b508091505092915050565b60006020820190508181036000830152611e588184611e01565b905092915050565b7f4e487b7100000000000000000000000000000000000000000000000000000000600052602160045260246000fd5b60068110611ea057611e9f611e60565b5b50565b6000819050611eb182611e8f565b919050565b6000611ec182611ea3565b9050919050565b611ed181611eb6565b82525050565b6000602082019050611eec6000830184611ec8565b92915050565b60008115159050919050565b611f0781611ef2565b82525050565b6000606082019050611f226000830186611efe565b611f2f6020830185611efe565b611f3c6040830184611ac6565b949350505050565b611f4d81611ef2565b82525050565b606082016000820151611f696000850182611f44565b506020820151611f7c6020850182611f44565b506040820151611f8f6040850182611cd3565b50505050565b6000606082019050611faa6000830184611f53565b92915050565b6000602082019050611fc56000830184611efe565b92915050565b7f566f7573206e27657465732070617320756e20656c65637465757220656e726560008201527f6769737472650000000000000000000000000000000000000000000000000000602082015250565b6000612027602683611a41565b915061203282611fcb565b604082019050919050565b600060208201905081810360008301526120568161201a565b9050919050565b7f4c612073657373696f6e20646520766f7465206e276573742070617320656e2060008201527f636f757273000000000000000000000000000000000000000000000000000000602082015250565b60006120b9602583611a41565b91506120c48261205d565b604082019050919050565b600060208201905081810360008301526120e8816120ac565b9050919050565b7f566f7573206176657a2064656a6120766f746500000000000000000000000000600082015250565b6000612125601383611a41565b9150612130826120ef565b602082019050919050565b6000602082019050818103600083015261215481612118565b9050919050565b7f43657474652070726f706f736974696f6e206e27657869737465207061730000600082015250565b6000612191601e83611a41565b915061219c8261215b565b602082019050919050565b600060208201905081810360008301526121c081612184565b9050919050565b7f4e487b7100000000000000000000000000000000000000000000000000000000600052603260045260246000fd5b7f4e487b7100000000000000000000000000000000000000000000000000000000600052601160045260246000fd5b6000612230826119d3565b91507fffffffffffffffffffffffffffffffffffffffffffffffffffffffffffffffff8203612262576122616121f6565b5b600182019050919050565b60006040820190506122826000830185611dd7565b61228f6020830184611ac6565b9392505050565b7f4e487b7100000000000000000000000000000000000000000000000000000000600052602260045260246000fd5b600060028204905060018216806122dd57607f821691505b6020821081036122f0576122ef612296565b5b50919050565b7f4c27656e72656769737472656d656e74206465732070726f706f736974696f6e60008201527f73206e276573742070617320656e20636f757273000000000000000000000000602082015250565b6000612352603483611a41565b915061235d826122f6565b604082019050919050565b6000602082019050818103600083015261238181612345565b9050919050565b7f4c61206465736372697074696f6e206e6520706575742070617320657472652060008201527f7669646500000000000000000000000000000000000000000000000000000000602082015250565b60006123e4602483611a41565b91506123ef82612388565b604082019050919050565b60006020820190508181036000830152612413816123d7565b9050919050565b7f4e487b7100000000000000000000000000000000000000000000000000000000600052604160045260246000fd5b60008190508160005260206000209050919050565b60006020601f8301049050919050565b600082821b905092915050565b6000600883026124ab7fffffffffffffffffffffffffffffffffffffffffffffffffffffffffffffffff8261246e565b6124b5868361246e565b95508019841693508086168417925050509392505050565b6000819050919050565b60006124f26124ed6124e8846119d3565b6124cd565b6119d3565b9050919050565b6000819050919050565b61250c836124d7565b612520612518826124f9565b84845461247b565b825550505050565b600090565b612535612528565b612540818484612503565b505050565b5b818110156125645761255960008261252d565b600181019050612546565b5050565b601f8211156125a95761257a81612449565b6125838461245e565b81016020851015612592578190505b6125a661259e8561245e565b830182612545565b50505b505050565b600082821c905092915050565b60006125cc600019846008026125ae565b1980831691505092915050565b60006125e583836125bb565b9150826002028217905092915050565b6125fe82611a36565b67ffffffffffffffff8111156126175761261661241a565b5b61262182546122c5565b61262c828285612568565b600060209050601f83116001811461265f576000841561264d578287015190505b61265785826125d9565b8655506126bf565b601f19841661266d86612449565b60005b8281101561269557848901518255600182019150602085019450602081019050612670565b868310156126b257848901516126ae601f8916826125bb565b8355505b6001600288020188555050505b505050505050565b60006126d2826119d3565b91506126dd836119d3565b92508282039050818111156126f5576126f46121f6565b5b92915050565b7f4c612073657373696f6e20646520766f746520646f697420657472652074657260008201527f6d696e6565000000000000000000000000000000000000000000000000000000602082015250565b6000612757602583611a41565b9150612762826126fb565b604082019050919050565b600060208201905081810360008301526127868161274a565b9050919050565b7f417563756e652070726f706f736974696f6e206e276578697374650000000000600082015250565b60006127c3601b83611a41565b91506127ce8261278d565b602082019050919050565b600060208201905081810360008301526127f2816127b6565b9050919050565b600060408201905061280e6000830185611ec8565b61281b6020830184611ec8565b9392505050565b7f4c27656e72656769737472656d656e742064657320656c65637465757273206e60008201527f276573742070617320656e20636f757273000000000000000000000000000000602082015250565b600061287e603183611a41565b915061288982612822565b604082019050919050565b600060208201905081810360008301526128ad81612871565b9050919050565b7f43657420656c656374657572206573742064656a6120656e7265676973747265600082015250565b60006128ea602083611a41565b91506128f5826128b4565b602082019050919050565b60006020820190508181036000830152612919816128dd565b9050919050565b7f4164726573736520696e76616c69646500000000000000000000000000000000600082015250565b6000612956601083611a41565b915061296182612920565b602082019050919050565b6000602082019050818103600083015261298581612949565b9050919050565b7f417563756e652070726f706f736974696f6e206e27612065746520656e72656760008201527f6973747265650000000000000000000000000000000000000000000000000000602082015250565b60006129e8602683611a41565b91506129f38261298c565b604082019050919050565b60006020820190508181036000830152612a17816129db565b9050919050565b7f4c657320766f746573206e276f6e742070617320656e636f726520657465206360008201527f6f6d70746162696c697365730000000000000000000000000000000000000000602082015250565b6000612a7a602c83611a41565b9150612a8582612a1e565b604082019050919050565b60006020820190508181036000830152612aa981612a6d565b9050919050565b7f4c27656e72656769737472656d656e742064657320656c65637465757273206460008201527f6f69742065747265207465726d696e6500000000000000000000000000000000602082015250565b6000612b0c603083611a41565b9150612b1782612ab0565b604082019050919050565b60006020820190508181036000830152612b3b81612aff565b9050919050565b7f4c27656e72656769737472656d656e74206465732070726f706f736974696f6e60008201527f7320646f69742065747265207465726d696e6500000000000000000000000000602082015250565b6000612b9e603383611a41565b9150612ba982612b42565b604082019050919050565b60006020820190508181036000830152612bcd81612b91565b905091905056fea26469706673582212200bcdd3d0502d5602ba023b39ac5cd3269f5e3543e18d4d44b3d76fc76792fbb564736f6c63430008140033",
  "immutableReferences": {},
  "source": "// SPDX-License-Identifier: MIT\npragma solidity ^0.8.20;\n\nimport \"@openzeppelin/contracts/access/Ownable.sol\";\n\ncontract Voting is Ownable {\n\n    // Structure pour reprsenter un lecteur\n    struct Voter {\n        bool isRegistered;\n        bool hasVoted;\n        uint votedProposalId;\n    }\n\n    // Structure pour reprsenter une proposition\n    struct Proposal {\n        string description;\n        uint voteCount;\n    }\n\n    // numration pour grer les diffrents tats du vote\n    enum WorkflowStatus {\n        RegisteringVoters,\n        ProposalsRegistrationStarted,\n        ProposalsRegistrationEnded,\n        VotingSessionStarted,\n        VotingSessionEnded,\n        VotesTallied\n    }\n\n    // Variables d'tat\n    WorkflowStatus public workflowStatus;\n    uint public winningProposalId;\n    \n    // Mappings\n    mapping(address => Voter) public voters;\n    \n    // Tableau des propositions\n    Proposal[] public proposals;\n\n    // vnements\n    event VoterRegistered(address voterAddress);\n    event WorkflowStatusChange(WorkflowStatus previousStatus, WorkflowStatus newStatus);\n    event ProposalRegistered(uint proposalId);\n    event Voted(address voter, uint proposalId);\n\n    // Modificateurs\n    modifier onlyRegisteredVoter() {\n        require(voters[msg.sender].isRegistered, \"Vous n'etes pas un electeur enregistre\");\n        _;\n    }\n\n    modifier onlyDuringVotersRegistration() {\n        require(workflowStatus == WorkflowStatus.RegisteringVoters, \"L'enregistrement des electeurs n'est pas en cours\");\n        _;\n    }\n\n    modifier onlyDuringProposalsRegistration() {\n        require(workflowStatus == WorkflowStatus.ProposalsRegistrationStarted, \"L'enregistrement des propositions n'est pas en cours\");\n        _;\n    }\n\n    modifier onlyDuringVotingSession() {\n        require(workflowStatus == WorkflowStatus.VotingSessionStarted, \"La session de vote n'est pas en cours\");\n        _;\n    }\n\n    // Constructeur\n    constructor() Ownable(msg.sender) {\n        workflowStatus = WorkflowStatus.RegisteringVoters;\n    }\n\n    // ::::::::::::: VOTER REGISTRATION ::::::::::::: //\n\n    /**\n     * @notice Permet  l'administrateur d'enregistrer un lecteur\n     * @param _voterAddress L'adresse Ethereum de l'lecteur  enregistrer\n     */\n    function registerVoter(address _voterAddress) external onlyOwner onlyDuringVotersRegistration {\n        require(!voters[_voterAddress].isRegistered, \"Cet electeur est deja enregistre\");\n        require(_voterAddress != address(0), \"Adresse invalide\");\n        \n        voters[_voterAddress].isRegistered = true;\n        \n        emit VoterRegistered(_voterAddress);\n    }\n\n    // ::::::::::::: PROPOSAL REGISTRATION ::::::::::::: //\n\n    /**\n     * @notice Dmarre la session d'enregistrement des propositions\n     */\n    function startProposalsRegistration() external onlyOwner {\n        require(workflowStatus == WorkflowStatus.RegisteringVoters, \"L'enregistrement des electeurs doit etre termine\");\n        \n        WorkflowStatus previousStatus = workflowStatus;\n        workflowStatus = WorkflowStatus.ProposalsRegistrationStarted;\n        \n        emit WorkflowStatusChange(previousStatus, workflowStatus);\n    }\n\n    /**\n     * @notice Permet aux lecteurs enregistrs de soumettre une proposition\n     * @param _description La description de la proposition\n     */\n    function registerProposal(string calldata _description) external onlyRegisteredVoter onlyDuringProposalsRegistration {\n        require(bytes(_description).length > 0, \"La description ne peut pas etre vide\");\n        \n        proposals.push(Proposal({\n            description: _description,\n            voteCount: 0\n        }));\n        \n        emit ProposalRegistered(proposals.length - 1);\n    }\n\n    /**\n     * @notice Termine la session d'enregistrement des propositions\n     */\n    function endProposalsRegistration() external onlyOwner {\n        require(workflowStatus == WorkflowStatus.ProposalsRegistrationStarted, \"L'enregistrement des propositions n'est pas en cours\");\n        require(proposals.length > 0, \"Aucune proposition n'a ete enregistree\");\n        \n        WorkflowStatus previousStatus = workflowStatus;\n        workflowStatus = WorkflowStatus.ProposalsRegistrationEnded;\n        \n        emit WorkflowStatusChange(previousStatus, workflowStatus);\n    }\n\n    // ::::::::::::: VOTING SESSION ::::::::::::: //\n\n    /**\n     * @notice Dmarre la session de vote\n     */\n    function startVotingSession() external onlyOwner {\n        require(workflowStatus == WorkflowStatus.ProposalsRegistrationEnded, \"L'enregistrement des propositions doit etre termine\");\n        \n        WorkflowStatus previousStatus = workflowStatus;\n        workflowStatus = WorkflowStatus.VotingSessionStarted;\n        \n        emit WorkflowStatusChange(previousStatus, workflowStatus);\n    }\n\n    /**\n     * @notice Permet aux lecteurs enregistrs de voter pour une proposition\n     * @param _proposalId L'identifiant de la proposition\n     */\n    function vote(uint _proposalId) external onlyRegisteredVoter onlyDuringVotingSession {\n        require(!voters[msg.sender].hasVoted, \"Vous avez deja vote\");\n        require(_proposalId < proposals.length, \"Cette proposition n'existe pas\");\n        \n        voters[msg.sender].hasVoted = true;\n        voters[msg.sender].votedProposalId = _proposalId;\n        proposals[_proposalId].voteCount++;\n        \n        emit Voted(msg.sender, _proposalId);\n    }\n\n    /**\n     * @notice Termine la session de vote\n     */\n    function endVotingSession() external onlyOwner {\n        require(workflowStatus == WorkflowStatus.VotingSessionStarted, \"La session de vote n'est pas en cours\");\n        \n        WorkflowStatus previousStatus = workflowStatus;\n        workflowStatus = WorkflowStatus.VotingSessionEnded;\n        \n        emit WorkflowStatusChange(previousStatus, workflowStatus);\n    }\n\n    // ::::::::::::: VOTE TALLYING ::::::::::::: //\n\n    /**\n     * @notice Comptabilise les votes et dtermine le gagnant\n     */\n    function tallyVotes() external onlyOwner {\n        require(workflowStatus == WorkflowStatus.VotingSessionEnded, \"La session de vote doit etre terminee\");\n        require(proposals.length > 0, \"Aucune proposition n'existe\");\n        \n        uint winningVoteCount = 0;\n        uint winningProposal = 0;\n        \n        for (uint i = 0; i < proposals.length; i++) {\n            if (proposals[i].voteCount > winningVoteCount) {\n                winningVoteCount = proposals[i].voteCount;\n                winningProposal = i;\n            }\n        }\n        \n        winningProposalId = winningProposal;\n        \n        WorkflowStatus previousStatus = workflowStatus;\n        workflowStatus = WorkflowStatus.VotesTallied;\n        \n        emit WorkflowStatusChange(previousStatus, workflowStatus);\n    }\n\n    // ::::::::::::: GETTERS ::::::::::::: //\n\n    /**\n     * @notice Retourne le gagnant du vote\n     * @return La proposition gagnante\n     */\n    function getWinner() external view returns (Proposal memory) {\n        require(workflowStatus == WorkflowStatus.VotesTallied, \"Les votes n'ont pas encore ete comptabilises\");\n        return proposals[winningProposalId];\n    }\n\n    /**\n     * @notice Retourne toutes les propositions\n     * @return Le tableau de toutes les propositions\n     */\n    function getProposals() external view returns (Proposal[] memory) {\n        return proposals;\n    }\n\n    /**\n     * @notice Retourne une proposition spcifique\n     * @param _proposalId L'identifiant de la proposition\n     * @return La proposition demande\n     */\n    function getProposal(uint _proposalId) external view returns (Proposal memory) {\n        require(_proposalId < proposals.length, \"Cette proposition n'existe pas\");\n        return proposals[_proposalId];\n    }\n\n    /**\n     * @notice Retourne les informations d'un lecteur\n     * @param _voterAddress L'adresse de l'lecteur\n     * @return Les informations de l'lecteur\n     */\n    function getVoter(address _voterAddress) external view returns (Voter memory) {\n        return voters[_voterAddress];\n    }\n\n    /**\n     * @notice Vrifie si une adresse est un lecteur enregistr (compatible web3.js 0.20.x)\n     * @param _voterAddress L'adresse de l'lecteur\n     * @return bool True si l'lecteur est enregistr\n     */\n    function isVoterRegistered(address _voterAddress) external view returns (bool) {\n        return voters[_voterAddress].isRegistered;\n    }\n\n    /**\n     * @notice Vrifie si un lecteur a vot (compatible web3.js 0.20.x)\n     * @param _voterAddress L'adresse de l'lecteur\n     * @return bool True si l'lecteur a vot\n     */\n    function hasVoterVoted(address _voterAddress) external view returns (bool) {\n        return voters[_voterAddress].hasVoted;\n    }\n\n    /**\n     * @notice Retourne l'ID de la proposition pour laquelle un lecteur a vot (compatible web3.js 0.20.x)\n     * @param _voterAddress L'adresse de l'lecteur\n     * @return uint L'ID de la proposition\n     */\n    function getVoterVotedProposalId(address _voterAddress) external view returns (uint) {\n        return voters[_voterAddress].votedProposalId;\n    }\n}",
  "sourcePath": "/home/michka/etherium-bootcamp/eth-voting-dapp/contracts/Voting.sol",
  "compiler": {
    "name": "solc",
    "version": "0.8.20+commit.a1b79de6.Emscripten.clang"
  },
  "schemaVersion": "3.4.16",
  "updatedAt": "2025-10-14T10:24:37.553Z",
  "networkType": "ethereum",
  "devdoc": {
    "errors": {
      "OwnableInvalidOwner(address)": [
        {
          "details": "The owner is not a valid owner account. (eg. `address(0)`)"
        }
      ],
      "OwnableUnauthorizedAccount(address)": [
        {
          "details": "The caller account is not authorized to perform an operation."
        }
      ]
    },
    "kind": "dev",
    "methods": {
      "getProposal(uint256)": {
        "params": {
          "_proposalId": "L'identifiant de la proposition"
        },
        "returns": {
          "_0": "La proposition demande"
        }
      },
      "getProposals()": {
        "returns": {
          "_0": "Le tableau de toutes les propositions"
        }
      },
      "getVoter(address)": {
        "params": {
          "_voterAddress": "L'adresse de l'lecteur"
        },
        "returns": {
          "_0": "Les informations de l'lecteur"
        }
      },
      "getVoterVotedProposalId(address)": {
        "params": {
          "_voterAddress": "L'adresse de l'lecteur"
        },
        "returns": {
          "_0": "uint L'ID de la proposition"
        }
      },
      "getWinner()": {
        "returns": {
          "_0": "La proposition gagnante"
        }
      },
      "hasVoterVoted(address)": {
        "params": {
          "_voterAddress": "L'adresse de l'lecteur"
        },
        "returns": {
          "_0": "bool True si l'lecteur a vot"
        }
      },
      "isVoterRegistered(address)": {
        "params": {
          "_voterAddress": "L'adresse de l'lecteur"
        },
        "returns": {
          "_0": "bool True si l'lecteur est enregistr"
        }
      },
      "owner()": {
        "details": "Returns the address of the current owner."
      },
      "registerProposal(string)": {
        "params": {
          "_description": "La description de la proposition"
        }
      },
      "registerVoter(address)": {
        "params": {
          "_voterAddress": "L'adresse Ethereum de l'lecteur  enregistrer"
        }
      },
      "renounceOwnership()": {
        "details": "Leaves the contract without owner. It will not be possible to call `onlyOwner` functions. Can only be called by the current owner. NOTE: Renouncing ownership will leave the contract without an owner, thereby disabling any functionality that is only available to the owner."
      },
      "transferOwnership(address)": {
        "details": "Transfers ownership of the contract to a new account (`newOwner`). Can only be called by the current owner."
      },
      "vote(uint256)": {
        "params": {
          "_proposalId": "L'identifiant de la proposition"
        }
      }
    },
    "version": 1
  },
  "userdoc": {
    "kind": "user",
    "methods": {
      "endProposalsRegistration()": {
        "notice": "Termine la session d'enregistrement des propositions"
      },
      "endVotingSession()": {
        "notice": "Termine la session de vote"
      },
      "getProposal(uint256)": {
        "notice": "Retourne une proposition spcifique"
      },
      "getProposals()": {
        "notice": "Retourne toutes les propositions"
      },
      "getVoter(address)": {
        "notice": "Retourne les informations d'un lecteur"
      },
      "getVoterVotedProposalId(address)": {
        "notice": "Retourne l'ID de la proposition pour laquelle un lecteur a vot (compatible web3.js 0.20.x)"
      },
      "getWinner()": {
        "notice": "Retourne le gagnant du vote"
      },
      "hasVoterVoted(address)": {
        "notice": "Vrifie si un lecteur a vot (compatible web3.js 0.20.x)"
      },
      "isVoterRegistered(address)": {
        "notice": "Vrifie si une adresse est un lecteur enregistr (compatible web3.js 0.20.x)"
      },
      "registerProposal(string)": {
        "notice": "Permet aux lecteurs enregistrs de soumettre une proposition"
      },
      "registerVoter(address)": {
        "notice": "Permet  l'administrateur d'enregistrer un lecteur"
      },
      "startProposalsRegistration()": {
        "notice": "Dmarre la session d'enregistrement des propositions"
      },
      "startVotingSession()": {
        "notice": "Dmarre la session de vote"
      },
      "tallyVotes()": {
        "notice": "Comptabilise les votes et dtermine le gagnant"
      },
      "vote(uint256)": {
        "notice": "Permet aux lecteurs enregistrs de voter pour une proposition"
      }
    },
    "version": 1
  }
}